:020000040000FA
:0400000000001F28B5
:040004000034003490
:08000800F1000308F2000A08F0
:10001000F3000B1C172883120313851E1728831265
:1000200003138712071387138312031306120B108F
:0E00300073088A0072088300F10E710E090039
:02003E0083122B
:1000400003138501831603133F30850083160313C2
:1000500020309600831203179E01831203179F011D
:1000600083120313860183160313E0308600831284
:1000700003179601831203138701831603130F30AE
:1000800087008312031307168312031388308B0033
:100090009B2083120313051854208518632005192B
:1000A0007220051A81204B2883120313A20B5C28AF
:1000B0008312031307125B28831203138716902001
:1000C00083120313080083120313A20B6B288312FD
:1000D000031307126A288312031307179020831251
:1000E0000313080083120313A20B7A28831203134D
:1000F00007127928831203138717902083120313A2
:10010000080083120313A20B89288312031307121A
:100110008828831203130616902083120313080005
:10012000831203136130A100A0010000A00B9528E9
:10013000A10B952808000301831203130718203E22
:100140008718103E0719083E8719043E83120313CF
:0C015000861A023E061B013EA2000800B9
:02400E00D430AC
:00000001FF
